:100000001BC03FC03EC03DC03CC06CC23AC039C0FE
:1000100038C037C036C035C034C028C3ADC20000B8
:100020000000380000000000370002020202020255
:10003000010204081020B10511241FBECFE5D2E053
:10004000DEBFCDBF20E0A6E9B0E001C01D92A33F16
:10005000B207E1F710E0A0E6B0E0E4E0F1E102C0B1
:1000600005900D92A639B107D9F710E0CCE1D0E0A8
:1000700003C02197FE0119D7CB31D107D1F70FD398
:100080003FC8BECF8EB938E28BE220E2932F9A951B
:10009000F1F78DB9B29BFECF922F9A95F1F78DB9FA
:1000A000769BF4CF88E28A95F1F78FB19FEF9FB9E5
:1000B000B89A0895FF920F931F93CF93DF93162F53
:1000C000042F21E02093EB00FC01208120FD03C0E0
:1000D00023E02093EB00C29AB29BFECF28E22A9540
:1000E000F1F7C09820E22A95F1F7C298C09A779963
:1000F0000AC087E08093EB0080E0DF91CF911F91F1
:100100000F91FF900895EC01FF24FA948091EB0089
:10011000837019F1C29888818FB980EFB3DFB898E6
:100120008EEFB0DF80FF0CC09091EB00892F8170C3
:1001300090FF02C086E0DECF95E09093EB00DDCF2C
:100140008091EB008E7F8093EB001150219611116E
:10015000DDCF01110EC081E0D0CFB89880EF92DFE3
:100160008883113021F4FFB88EEF8CDFEECF1FB8FB
:10017000FBCFC098C29AB29BFECF80E28A95F1F77E
:10018000C09A88E28A95F1F77599E5CF88E0809367
:10019000EB00E1CF482F6091EE0086E990E08ADF26
:1001A0001092ED001092EE001092EC00811110C040
:1001B0008091EB00853041F0863021F0813031F4C0
:1001C00081E0089582E0089583E0089584E0089531
:1001D00080E00895C09AC29ABA9AB89A8FEF8FB900
:1001E0008AE28DB980EF8EB90895CF93DF93EC0149
:1001F0008B81882399F0988181E08093EC00990F9E
:10020000909396008093ED008093EE00C3DF91E021
:10021000811190E0892FDF91CF9108951092ED0028
:100220001092EE001092EC00D5DF81E08B83CE01BE
:10023000DCDF982F8111DFCFEDCFCF93DF93DC018F
:100240001496ED91FC91E417F50710F490E034C09A
:10025000FC01908181E08093EC00990F90939600CF
:100260008093ED008093EE0091E0F0E0E0E0B0E0FC
:10027000A0E04E175F07A1F0D0E0C0E0903260F43C
:10028000EB01CE0FDF1F8881C92FD0E0CA56DF4FA8
:1002900088839F5FC1E0D0E0AC0FBD1F3196E9CFEE
:1002A0009093EE009093ED004A175B0779F6822F4A
:1002B00071DF91E08111CACF892FDF91CF9108952D
:1002C000CF93DF9300D0CDB7DEB789836A8321E077
:1002D00042E050E0BE016F5F7F4F8091E40090915B
:1002E000E500ABDF811107C084E091E00F900F9033
:1002F000DF91CF91089590E080E0F8CF9091CF000A
:10030000992329F061E06827619583E0D9CF85E0E2
:1003100090E008950F931F93CF93DF93CDB7DEB78F
:1003200029970FB6F894DEBF0FBECDBF2091CF0046
:10033000222309F448C08B019C01045011092109B2
:1003400031090D3F17402105310508F03FC02091CC
:10035000DA002223D9F1DC01CB010497A109BE4FB9
:1003600027E0880F991FAA1FBB1F2A95D1F72AE201
:1003700029831A8221E02B832091E6002A2B2C83EB
:100380009D838E831F821886198621E049E050E004
:10039000BE016F5F7F4F8091E4009091E5004DDFDB
:1003A000882371F06FE480E18BDF29960FB6F89413
:1003B000DEBF0FBECDBFDF91CF911F910F9108958A
:1003C00084E091E0F2CF85E090E0EFCF84E090E030
:1003D000ECCFCF93DF938091CF00C5E0D0E08823AE
:1003E00009F454C065EF8AE16BDFEC01892B09F059
:1003F0004DC061EE8BE164DFEC01892B09F046C052
:1004000060E08CE15DDFEC01892B09F03FC06BE01F
:100410008DE156DFEC01892BC9F56CEE8EE150DFE2
:10042000EC01892B99F564E58FE14ADFEC01892B1A
:1004300069F567EE80E244DFEC01892B39F564E968
:1004400081E23EDFEC01892B09F560EA81EB38DFC0
:10045000EC01892BD9F46091D0007091D10080918A
:10046000D2009091D300A6D32AE23DEC4EED51E4A8
:10047000DCD321E02093DA00C5D498D46093DB006C
:100480007093DC008093DD009093DE00CE01DF915D
:10049000CF910895CF93DF9390E0FC01E05DFF4F93
:1004A0002491865D9F4FFC0184918823C1F090E0E8
:1004B000880F991FFC01EC5DFF4FC591D491FC01A1
:1004C000E25EFF4FA591B4919FB7F8948881E22F27
:1004D000E0958E2388838C91E823EC939FBFDF9176
:1004E000CF9108951F920F920FB60F9211242F9360
:1004F0003F938F939F93AF93BF938091BC00909154
:10050000BD00A091BE00B091BF003091BB0026E0BD
:10051000230F2D3768F129E8230F0396A11DB11D84
:100520002093BB008093BC009093BD00A093BE00BD
:10053000B093BF008091B7009091B800A091B9002E
:10054000B091BA000196A11DB11D8093B7009093A0
:10055000B800A093B900B093BA00BF91AF919F913A
:100560008F913F912F910F900FBE0F901F90189574
:100570000296A11DB11DD4CF1F920F920FB60F92FC
:1005800011242F938F939F93EF93FF938091B60045
:10059000823009F45EC078F4882349F1813009F48F
:1005A0003EC0FF91EF919F918F912F910F900FBEC1
:1005B0000F901F901895843009F451C048F1853090
:1005C00081F784E08093B6009FB18091C0008F5F77
:1005D0008F702091C100281709F446C08093C00095
:1005E000E091C000F0E0EA56FF4F90830BC08FB15E
:1005F000882319F08FB1869571F4789B07C081E04C
:100600008093B6001FB8B89A8EE721C084E0F8CF77
:100610008FB1882321F0B89888EA8DB917C08091EE
:10062000E9009091EA009817B1F38091E9008F5F9B
:100630008F708093E900E091E900F0E0EA55FF4F08
:1006400080818FB982E08093B600B89A80E78EB936
:10065000A8CF83E08093B600B8981FB8D5CF85E0C7
:100660008093B600B898F2CFB898CECF1F920F9271
:100670000FB60F9211248F931092B600B898B29BC8
:1006800004C0B09BFCCF88EA01C088EF8DB980EF31
:100690008EB98F910F900FBE0F901F901895CF932A
:1006A000DF931F92CDB7DEB783E08ABD83BF789416
:1006B00089B7826089BF80E48CBD8FEF8DBD87ECE8
:1006C00080BF86E886B983E0E5DE84E0E3DE81E092
:1006D000E1DE8091E4009091E500009709F087D475
:1006E00086E090E0E8D38C0180E6F801808382EC1C
:1006F00090E092838183138280E290E095838483EB
:100700001093E5000093E4001092ED001092EE00CB
:100710001092EC005FDD81E0F8018383C80165DDA4
:10072000882309F456C16FEF83E0CADD892B09F0F5
:1007300050C160E880E1C4DD892B09F04AC160E85E
:1007400081E1BEDD892B09F044C160E882E1B8DDBA
:10075000892B09F03EC160E883E1B2DD892B09F005
:1007600038C160E884E1ACDD892B09F032C160E872
:1007700085E1A6DD892B09F02CC160E886E1A0DDCA
:10078000892B09F026C160E887E19ADD892B09F001
:1007900020C16091D40087EB93DD892B09F019C14A
:1007A00085E989830091E4001091E50020E041E0B3
:1007B00050E0BE016F5F7F4FC8013FDD882309F421
:1007C00063C0EE24E394DD24D394F8018481958101
:1007D000892B09F4D12CAD2CB12CCC24C394CD0C95
:1007E000F8018081880F8160809396004D2D6C2DDB
:1007F00086E990E05FDCE092ED00811119C0E092A3
:10080000EE0090E08A159B0509F03EC0A091EE0035
:1008100021E050E040E04817590768F5AA2361F04D
:10082000A21322C06FEF7FEF41E050E0F62EF3CF2E
:10083000C092EE008D2DE5CF4091C1003091C000F7
:10084000341B3F7079F34091C1003091C0004317D1
:10085000E1F3E091C100EF5FEF70E093C100F0E0E1
:10086000EA56FF4F6081E0CFE22FF0E0EA56FF4FFB
:1008700060812F5FD9CF2093ED00892B09F4A3CF9E
:100880006F2D6F7785E91CDD1092DA001092DB0086
:100890001092DC001092DD001092DE001092DF005A
:1008A0001092E0001092E1001092E2001092E3003A
:1008B00081E08093CF008DDD66EA70E080E090E01B
:1008C00029DD81E01BDD73E0E72EF12C01E010E073
:1008D000E6EACE2ED12C80916400909165000797B6
:1008E00020F0F0926500E0926400B199F4CF86B3F5
:1008F00081FDF1CF982F987084FD17C19923A9F03D
:100900002091CD003091CE002F5F3F4F3093CE002D
:100910002093CD002536310544F01092CC00109282
:10092000CB001093CA000093C900887109F0F8C089
:100930001092CE001092CD004091C9005091CA0093
:100940004115510509F062C08091CB009091CC0017
:10095000892B09F05BC08091C5009091C60001967B
:100960009093C6008093C500893B9B400CF4B3CFA5
:1009700080916200909163008130910509F0ABCFC6
:1009800010926300109262002091C3003091C40065
:10099000232BB9F59093C4008093C300F0926500B7
:1009A000E0926400D0926100C09260001092C80092
:1009B0001092C7001092C6001092C50080E09EDC25
:1009C00008DD66EA70E080E090E0A4DC81E096DC7F
:1009D00082CFFFCF2091CD003091CE002F5F3F4FCF
:1009E0003093CE002093CD00253631050CF49DCFF9
:1009F0001092CA001092C9001093CC000093CB0053
:100A000094CF1092C4001092C300C8CF1092C600B9
:100A10001092C5002091C7003091C8002F5F3F4F52
:100A20003093C8002093C7008091640090916500C6
:100A3000FC01EE0FFF1FE857FF4F608171816217C5
:100A400073070CF048CF4130510571F586309105A0
:100A500059F101969093650080936400880F991F67
:100A6000880F991FFC01E459FF4F20E030E046E277
:100A700053E46081718182819381D7D092D14B01FF
:100A800070936100609360008091C3009091C400F6
:100A9000892B51F480E032DC9CDCB401990C880B8A
:100AA000990B38DC81E02ADC8091CB009091CC005E
:100AB000019789F58091640090916500009759F144
:100AC00001979093650080936400880F991F880FA9
:100AD000991FFC01E459FF4F20E030E046E253E467
:100AE0006081718182819381A0D05BD14B01709331
:100AF0006100609360008091C3009091C400892BD5
:100B000051F480E0FBDB65DCB401990C880B990B98
:100B100001DC81E0F3DB1092C8001092C700DBCE4D
:100B20001092C6001092C500D6CE992309F452CF78
:100B30001092CA001092C9001092CC001092CB0003
:100B40001092CE001092CD001092C8001092C700F3
:100B50001092C6001092C5001093630000936200CB
:100B6000E4CEEFECF0E0168A158A108280E498E774
:100B7000ADE7B1E081839283A383B48380EC90E0FE
:100B8000968385838EE190E0A0E0B0E08783908734
:100B9000A187B28713861486158616861786108A53
:100BA000118A128A138A148A178A108E118E089558
:100BB000E89409C097FB3EF49095809570956195F7
:100BC0007F4F8F4F9F4F9923A9F0F92F96E9BB27AD
:100BD0009395F695879577956795B795F111F8CF29
:100BE000FAF4BB0F11F460FF1BC06F5F7F4F8F4F94
:100BF0009F4F16C0882311F096E911C0772321F08A
:100C00009EE8872F762F05C0662371F096E8862F21
:100C100070E060E02AF09A95660F771F881FDAF778
:100C2000880F9695879597F908950AD080C071D05E
:100C300028F076D018F0952309F062C067C0ABC0E9
:100C400087D0A8F39923D9F35523C9F3950F50E022
:100C5000551FAA27EE27FF27BB2700240894679576
:100C600020F4E20FF31FB41F0A1E220F331F441F8C
:100C7000AA1F6695A9F7779530F4F30FB41F0A1EE3
:100C8000121E08F46395330F441FAA1F221F769586
:100C900099F7879520F4B40F0A1E121E631F440FA4
:100CA000AA1F221F331F8695A9F7862F712D602D4D
:100CB00011249F5750408AF0E1F088234AF0EE0F4C
:100CC000FF1FBB1F661F771F881F91505040A9F759
:100CD0009E3F510570F014C05EC05F3FECF3983E3C
:100CE000DCF3869577956795B795F795E7959F5FC0
:100CF000C1F7FE2B880F911D9695879597F908955A
:100D000097F99F6780E870E060E008959FEF80ECBE
:100D1000089500240A941616170618060906089561
:100D200000240A9412161306140605060895092EC7
:100D30000394000C11F4882352F0BB0F40F4BF2B36
:100D400011F460FF04C06F5F7F4F8F4F9F4F089576
:100D500057FD9058440F551F59F05F3F71F047956C
:100D6000880F97FB991F61F09F3F79F08795089551
:100D7000121613061406551FF2CF4695F1DF08C070
:100D8000161617061806991FF1CF8695710561058D
:100D900008940895E894BB2766277727CB0197F935
:100DA000089504D06894B111F6CF0895D9DF88F082
:100DB0009F5790F0B92F9927B751A0F0D1F0660F47
:100DC000771F881F991F1AF0BA95C9F712C0B13062
:100DD00081F0E0DFB1E00895DDCF672F782F88271D
:100DE000B85F39F0B93FCCF3869577956795B395A1
:100DF000D9F73EF490958095709561957F4F8F4F10
:100E00009F4F08953BD080F09F3740F491110EF032
:100E1000C2CF60E070E080E89FEB089526F41B16D7
:100E2000611D711D811D01C01BC0882371F47723D2
:100E300021F09850872B762F07C0662311F499274D
:100E40000DC09051862B70E060E02AF09A95660FF5
:100E5000771F881FDAF7880F9695879597F9089579
:100E60009F3F31F0915020F4879577956795B7951E
:100E7000880F911D9695879597F9089571DFA0F0D9
:100E8000BEE7B91788F4BB279F3860F41616B11D6A
:100E9000672F782F8827985FF7CF86957795679586
:100EA000B11D93959639C8F30895EE0FFF1F059075
:100EB000F491E02D09940F931F93CF93DF93823029
:100EC000910510F482E090E0E091F100F091F200E1
:100ED00030E020E0B0E0A0E0309799F42115310532
:100EE00009F44AC0281B390B24303105D8F58A8112
:100EF0009B816115710589F1FB0193838283FE015A
:100F000011C0408151810281138148175907E0F0D7
:100F10004817590799F4109761F012960C9312979D
:100F200013961C933296CF01DF91CF911F910F91B1
:100F300008950093F1001093F200F4CF21153105CC
:100F400051F04217530738F0A901DB019A01BD01A6
:100F5000DF01F801C1CFEF01F9CF9093F200809348
:100F6000F100CDCFFE01E20FF31F81939193225048
:100F7000310939832883D7CF2091EF003091F000D9
:100F8000232B41F420916800309169003093F000E8
:100F90002093EF0020916600309167002115310504
:100FA00041F42DB73EB740916A0050916B00241B6D
:100FB000350BE091EF00F091F000E217F307A0F499
:100FC0002E1B3F0B2817390778F0AC014E5F5F4F9F
:100FD0002417350748F04E0F5F1F5093F0004093E1
:100FE000EF00819391939FCFF0E0E0E09CCFCF930F
:100FF000DF930097E9F0FC01329713821282A091EF
:10100000F100B091F200ED0130E020E01097A1F482
:1010100020813181820F931F2091EF003091F000E9
:101020002817390709F061C0F093F000E093EF0052
:10103000DF91CF910895EA01CE17DF07E8F54A81E5
:101040005B819E0141155105B1F7E901FB83EA83FC
:1010500049915991C40FD51FEC17FD0761F48081A8
:1010600091810296840F951FE9019983888382817B
:1010700093819B838A83F0E0E0E012968D919C91AE
:1010800013970097B9F52D913C911197CD010296D8
:10109000820F931F2091EF003091F000281739073D
:1010A00039F6309751F51092F2001092F100B0939A
:1010B000F000A093EF00BCCFD383C2834081518165
:1010C000840F951FC817D90761F44E5F5F4F888161
:1010D0009981480F591F518340838A819B81938353
:1010E00082832115310509F0B0CFF093F200E0932F
:1010F000F1009ECFFD01DC01C0CF13821282D7CF59
:04110000F894FFCF91
:10110400A600010003000000F30080000000003F7F
:101114001F852B3FCDCC4C3F0000803F0000A03FFB
:101124000000C03F00000040DC05DC05DC05DC05F8
:06113400DC05DC05DC0512
:00000001FF
